{
  "contractName": "Waitlist",
  "abi": [
    {
      "constant": false,
      "inputs": [],
      "name": "SetUserInfo",
      "outputs": [],
      "payable": false,
      "stateMutability": "nonpayable",
      "type": "function",
      "signature": "0x3a59fb17"
    },
    {
      "constant": true,
      "inputs": [],
      "name": "GetUserInfo",
      "outputs": [
        {
          "name": "",
          "type": "uint256"
        },
        {
          "name": "",
          "type": "uint256"
        }
      ],
      "payable": false,
      "stateMutability": "view",
      "type": "function",
      "signature": "0x5119a342"
    },
    {
      "constant": true,
      "inputs": [],
      "name": "Countdown",
      "outputs": [
        {
          "name": "",
          "type": "uint256"
        }
      ],
      "payable": false,
      "stateMutability": "view",
      "type": "function",
      "signature": "0x1acabb80"
    }
  ],
  "bytecode": "0x6080604052600160005534801561001557600080fd5b5061028e806100256000396000f3fe608060405260043610610057576000357c0100000000000000000000000000000000000000000000000000000000900463ffffffff1680631acabb801461005c5780633a59fb17146100875780635119a3421461009e575b600080fd5b34801561006857600080fd5b506100716100d0565b6040518082815260200191505060405180910390f35b34801561009357600080fd5b5061009c6100dd565b005b3480156100aa57600080fd5b506100b36101d1565b604051808381526020018281526020019250505060405180910390f35b6000804290508091505090565b6000600160003373ffffffffffffffffffffffffffffffffffffffff1673ffffffffffffffffffffffffffffffffffffffff1681526020019081526020016000206000015414151561012e57600080fd5b600054600160003373ffffffffffffffffffffffffffffffffffffffff1673ffffffffffffffffffffffffffffffffffffffff1681526020019081526020016000206000018190555042600160003373ffffffffffffffffffffffffffffffffffffffff1673ffffffffffffffffffffffffffffffffffffffff168152602001908152602001600020600101819055506000808154809291906001019190505550565b600080600160003373ffffffffffffffffffffffffffffffffffffffff1673ffffffffffffffffffffffffffffffffffffffff16815260200190815260200160002060000154600160003373ffffffffffffffffffffffffffffffffffffffff1673ffffffffffffffffffffffffffffffffffffffff1681526020019081526020016000206001015491509150909156fea165627a7a72305820d3818414808fcd977e610c9fcd6679d16a36f2e8f695ea6e564a2fa159f4ddb30029",
  "source": "pragma solidity >=0.4.0 <0.7.0;\n\ncontract Waitlist {\n\n   uint list_length = 1;\n\n   struct UserInfo {\n       uint place_in_line;\n       uint timestamp;\n   }\n\n   mapping (address => UserInfo) AllUsers;\n\n\n   function SetUserInfo() public {\n       require (AllUsers[msg.sender].place_in_line == 0);\n       AllUsers[msg.sender].place_in_line = list_length;\n       AllUsers[msg.sender].timestamp = block.timestamp;\n       list_length++;\n   }\n\n   function GetUserInfo() public view returns(uint,uint) {\n       return(AllUsers[msg.sender].place_in_line , AllUsers[msg.sender].timestamp);\n   }\n\n   function Countdown() public view returns (uint){\n       uint _now = block.timestamp;\n       return _now;\n   }\n}\n",
  "sourcePath": "/Users/codedesk/Ethereum_Projects/react-dapp/contracts/waitlist.sol",
  "compiler": {
    "name": "solc",
    "version": "0.5.0+commit.1d4f565a.Emscripten.clang"
  },
  "schemaVersion": "3.0.6",
  "updatedAt": "2019-05-03T13:38:29.135Z",
  "devdoc": {
    "methods": {}
  },
  "userdoc": {
    "methods": {}
  }
}